{
  "contractName": "HelloWorld",
  "abi": [
    {
      "inputs": [],
      "stateMutability": "nonpayable",
      "type": "constructor"
    },
    {
      "inputs": [],
      "name": "DONATION_ADDRESS",
      "outputs": [
        {
          "internalType": "address",
          "name": "",
          "type": "address"
        }
      ],
      "stateMutability": "view",
      "type": "function"
    },
    {
      "inputs": [],
      "name": "MESSAGE_CONSTANT",
      "outputs": [
        {
          "internalType": "string",
          "name": "",
          "type": "string"
        }
      ],
      "stateMutability": "view",
      "type": "function"
    },
    {
      "inputs": [],
      "name": "OWNER",
      "outputs": [
        {
          "internalType": "address",
          "name": "",
          "type": "address"
        }
      ],
      "stateMutability": "view",
      "type": "function"
    },
    {
      "inputs": [],
      "name": "messageState",
      "outputs": [
        {
          "internalType": "string",
          "name": "",
          "type": "string"
        }
      ],
      "stateMutability": "view",
      "type": "function"
    },
    {
      "inputs": [],
      "name": "showMessage",
      "outputs": [
        {
          "internalType": "string",
          "name": "",
          "type": "string"
        }
      ],
      "stateMutability": "pure",
      "type": "function"
    },
    {
      "inputs": [],
      "name": "getBlockNumber",
      "outputs": [
        {
          "internalType": "uint256",
          "name": "",
          "type": "uint256"
        }
      ],
      "stateMutability": "view",
      "type": "function"
    }
  ],
  "bytecode": "0x60e0604052600c60a08190526b48656c6c6f20576f726c642160a01b60c090815261002d9160009190610047565b5034801561003a57600080fd5b503360601b60805261011b565b828054610053906100e0565b90600052602060002090601f01602090048101928261007557600085556100bb565b82601f1061008e57805160ff19168380011785556100bb565b828001600101855582156100bb579182015b828111156100bb5782518255916020019190600101906100a0565b506100c79291506100cb565b5090565b5b808211156100c757600081556001016100cc565b6002810460018216806100f457607f821691505b6020821081141561011557634e487b7160e01b600052602260045260246000fd5b50919050565b60805160601c6102d0610138600039600060c901526102d06000f3fe608060405234801561001057600080fd5b50600436106100625760003560e01c8063117803e31461006757806342cbb15c14610085578063799c36cf1461009a5780638125ceb2146100af578063b831d1d7146100b7578063f8e726d1146100bf575b600080fd5b61006f6100c7565b60405161007c91906101ef565b60405180910390f35b61008d6100eb565b60405161007c9190610256565b6100a26100ef565b60405161007c9190610203565b6100a261011a565b6100a2610149565b61006f6101d7565b7f000000000000000000000000000000000000000000000000000000000000000081565b4290565b6040518060400160405280600f81526020016e48656c6c6f20636f6e7374616e742160881b81525081565b60408051808201909152601581527448656c6c6f20536f6c696469747920576f726c642160581b602082015290565b600080546101569061025f565b80601f01602080910402602001604051908101604052809291908181526020018280546101829061025f565b80156101cf5780601f106101a4576101008083540402835291602001916101cf565b820191906000526020600020905b8154815290600101906020018083116101b257829003601f168201915b505050505081565b734e00087197f07094314a6b6ffd54d35b2c2f607481565b6001600160a01b0391909116815260200190565b6000602080835283518082850152825b8181101561022f57858101830151858201604001528201610213565b818111156102405783604083870101525b50601f01601f1916929092016040019392505050565b90815260200190565b60028104600182168061027357607f821691505b6020821081141561029457634e487b7160e01b600052602260045260246000fd5b5091905056fea2646970667358221220d43e43b023dd251f85f829f93bee412076140d88787aa915a805870c5aaa230464736f6c63430008010033",
  "immutableReferences": {
    "13": [
      {
        "length": 32,
        "start": 201
      }
    ]
  },
  "source": "// SPDX-License-Identifier: MIT\npragma solidity ^0.8.1;\n\n/// @title First Smart Contract\n/// @author Julian Boetto\n\ncontract HelloWorld {\n    string public messageState = \"Hello World!\";\n\n    string public constant MESSAGE_CONSTANT = \"Hello constant!\";\n\n    address public constant DONATION_ADDRESS = 0x4E00087197F07094314a6B6FfD54D35b2C2f6074;\n\n    address public immutable OWNER;\n\n    constructor() {\n        OWNER = msg.sender;\n    }   \n    \n    function showMessage() public pure returns (string memory) {\n        string memory message = \"Hello Solidity World!\";\n\n        return message;\n    }\n\n    function getBlockNumber() public view returns (uint) {\n        return block.timestamp;\n    }\n}",
  "sourcePath": "/home/julian/Julian/Solidity/Loteria/contracts/HelloWorld.sol",
  "compiler": {
    "name": "solc",
    "version": "0.8.1+commit.df193b15.Emscripten.clang"
  },
  "schemaVersion": "3.4.9",
  "updatedAt": "2022-09-01T12:21:00.213Z",
  "devdoc": {
    "author": "Julian Boetto",
    "kind": "dev",
    "methods": {},
    "title": "First Smart Contract",
    "version": 1
  },
  "userdoc": {
    "kind": "user",
    "methods": {},
    "version": 1
  }
}